:100000000C944A000C9454000C9454000C9454002A
:100010000C9454000C9454000C9454000C94540010
:100020000C9454000C9454000C9454000C94540000
:100030000C9454000C9454000C9454000C945400F0
:100040000C9454000C9454000C9454000C945400E0
:100050000C9454000C9454000C9454000C945400D0
:100060000C9454000C9454000C9454000C945400C0
:100070000C9454000C9454000C9454000C945400B0
:100080000C9454000C9454000C9454000C945400A0
:100090000C94540011241FBECFEFD8E0DEBFCDBFBB
:1000A0000E9456000C9466000C9400008FEF8AB9F1
:1000B0001BB88BB180958BB92FEF8FE493EC215057
:1000C00080409040E1F700C00000F3CFF894FFCFEC
:00000001FF
